{
  "_format": "hh-sol-artifact-1",
  "contractName": "mockGweiPump",
  "sourceName": "contracts/mockGweiPump.sol",
  "abi": [
    {
      "inputs": [
        {
          "internalType": "address",
          "name": "mockLinkAddress",
          "type": "address"
        }
      ],
      "stateMutability": "nonpayable",
      "type": "constructor"
    },
    {
      "inputs": [],
      "name": "msgValueTooSmall",
      "type": "error"
    },
    {
      "inputs": [],
      "name": "notOwner",
      "type": "error"
    },
    {
      "inputs": [],
      "name": "oraclePriceFeedZero",
      "type": "error"
    },
    {
      "inputs": [],
      "name": "pumpNotFilled",
      "type": "error"
    },
    {
      "inputs": [],
      "name": "upKeepNotNeeded",
      "type": "error"
    },
    {
      "anonymous": false,
      "inputs": [],
      "name": "oilBought",
      "type": "event"
    },
    {
      "anonymous": false,
      "inputs": [],
      "name": "updateWti",
      "type": "event"
    },
    {
      "inputs": [],
      "name": "Owner",
      "outputs": [
        {
          "internalType": "address",
          "name": "",
          "type": "address"
        }
      ],
      "stateMutability": "view",
      "type": "function"
    },
    {
      "inputs": [],
      "name": "WtiPriceOracle",
      "outputs": [
        {
          "internalType": "uint256",
          "name": "",
          "type": "uint256"
        }
      ],
      "stateMutability": "view",
      "type": "function"
    },
    {
      "inputs": [],
      "name": "erc20LINK",
      "outputs": [
        {
          "internalType": "contract ERC20TokenContract",
          "name": "",
          "type": "address"
        }
      ],
      "stateMutability": "view",
      "type": "function"
    },
    {
      "inputs": [],
      "name": "isPumpFilled",
      "outputs": [
        {
          "internalType": "uint256",
          "name": "",
          "type": "uint256"
        }
      ],
      "stateMutability": "view",
      "type": "function"
    },
    {
      "inputs": [],
      "name": "lastWtiPriceCheckUnixTime",
      "outputs": [
        {
          "internalType": "uint256",
          "name": "",
          "type": "uint256"
        }
      ],
      "stateMutability": "view",
      "type": "function"
    },
    {
      "inputs": [
        {
          "internalType": "uint256",
          "name": "mockOracleValue",
          "type": "uint256"
        }
      ],
      "name": "manualUpKeep",
      "outputs": [],
      "stateMutability": "nonpayable",
      "type": "function"
    },
    {
      "inputs": [],
      "name": "mockBuyOil40Milliliters",
      "outputs": [],
      "stateMutability": "payable",
      "type": "function"
    },
    {
      "inputs": [
        {
          "internalType": "uint256",
          "name": "mockOracleValue",
          "type": "uint256"
        }
      ],
      "name": "mockChainlinkNodeRequestWtiPrice",
      "outputs": [],
      "stateMutability": "nonpayable",
      "type": "function"
    },
    {
      "inputs": [],
      "name": "mockGetLatestMaticUsd",
      "outputs": [
        {
          "internalType": "int256",
          "name": "",
          "type": "int256"
        }
      ],
      "stateMutability": "view",
      "type": "function"
    },
    {
      "inputs": [],
      "name": "mockGetLatestWtiMatic",
      "outputs": [
        {
          "internalType": "uint256",
          "name": "",
          "type": "uint256"
        }
      ],
      "stateMutability": "view",
      "type": "function"
    },
    {
      "inputs": [],
      "name": "mockWti40Milliliters",
      "outputs": [
        {
          "internalType": "uint256",
          "name": "",
          "type": "uint256"
        }
      ],
      "stateMutability": "view",
      "type": "function"
    },
    {
      "inputs": [
        {
          "internalType": "uint256",
          "name": "memoryWtiPriceOracle",
          "type": "uint256"
        }
      ],
      "name": "mockfulfill",
      "outputs": [],
      "stateMutability": "nonpayable",
      "type": "function"
    },
    {
      "inputs": [
        {
          "internalType": "uint256",
          "name": "status",
          "type": "uint256"
        }
      ],
      "name": "ownerPumpFilledStatus",
      "outputs": [],
      "stateMutability": "nonpayable",
      "type": "function"
    }
  ],
  "bytecode": "0x60a060405260016000553480156200001657600080fd5b50604051620018bf380380620018bf83398181016040528101906200003c919062000229565b620000707f99a08f8b56b0af1fffceb96db7928130e2fcd3a7f4d7bef27e10f5d68d8f835c60001b620001bc60201b60201c565b620000a47f513cff4aff6d7164b63883d38625ebd4348289eeacd93c018085fcf9b12ee8ec60001b620001bc60201b60201c565b620000d87f16a08a5b9f59b44043ff12ffe02f662ce23810cedbb85d10738c8768a68d9f6660001b620001bc60201b60201c565b3373ffffffffffffffffffffffffffffffffffffffff1660808173ffffffffffffffffffffffffffffffffffffffff1681525050620001407fdf4dbeab38b1669f6a88dee0f8a7d4a5a693e763758e3e107de8bb61403fa96760001b620001bc60201b60201c565b620001747fd9e12e78673f064754e74295f441d3f738fdf532fb94344969d10ac20e86ffc760001b620001bc60201b60201c565b80600360006101000a81548173ffffffffffffffffffffffffffffffffffffffff021916908373ffffffffffffffffffffffffffffffffffffffff160217905550506200025b565b50565b600080fd5b600073ffffffffffffffffffffffffffffffffffffffff82169050919050565b6000620001f182620001c4565b9050919050565b6200020381620001e4565b81146200020f57600080fd5b50565b6000815190506200022381620001f8565b92915050565b600060208284031215620002425762000241620001bf565b5b6000620002528482850162000212565b91505092915050565b60805161163a620002856000396000818161091801528181610a8d015261111d015261163a6000f3fe6080604052600436106100c25760003560e01c806398e071ee1161007f578063d42506b811610059578063d42506b814610244578063d66666121461026d578063d698a37e14610298578063e6ee4c45146102c3576100c2565b806398e071ee146101c3578063b4a99a4e146101ee578063b697818114610219576100c2565b8063162ecb8d146100c75780633fa079ce146100f25780635fce9d341461011b57806377b2d82a146101465780637de03ddf1461016f578063861b31ce14610198575b600080fd5b3480156100d357600080fd5b506100dc6102cd565b6040516100e99190611224565b60405180910390f35b3480156100fe57600080fd5b5061011960048036038101906101149190611270565b61037b565b005b34801561012757600080fd5b506101306105ab565b60405161013d9190611224565b60405180910390f35b34801561015257600080fd5b5061016d60048036038101906101689190611270565b6105b1565b005b34801561017b57600080fd5b5061019660048036038101906101919190611270565b6107f0565b005b3480156101a457600080fd5b506101ad610880565b6040516101ba9190611224565b60405180910390f35b3480156101cf57600080fd5b506101d8610886565b6040516101e591906112b6565b60405180910390f35b3480156101fa57600080fd5b50610203610916565b6040516102109190611312565b60405180910390f35b34801561022557600080fd5b5061022e61093a565b60405161023b9190611224565b60405180910390f35b34801561025057600080fd5b5061026b60048036038101906102669190611270565b610a07565b005b34801561027957600080fd5b50610282610bca565b60405161028f919061138c565b60405180910390f35b3480156102a457600080fd5b506102ad610bf0565b6040516102ba9190611224565b60405180910390f35b6102cb610bf6565b005b60006102fb7fc527462d69ea6bbbbb8e17fae067f9094f6473898e5df103d27eb40826d80ab560001b611208565b6103277f032208bbb4c443c20e832084b191665ca02cb915824ffea38eed40461dc40bb460001b611208565b6103537ff6c4cab5d3765a2402491470c8d0c19662ec50ac69973e23571dbab31e2617c160001b611208565b62f2986961035f61093a565b610fa061036c91906113d6565b6103769190611447565b905090565b6103a77f31ed8f6c70a96ac2a9b52d5a8d28f39f6ea92cb35b41ac2e7d0cdbf32e5e84c760001b611208565b6103d37f2da0cc678526a9319c4707f4c96bc1135c19a46cb17fd094d8df9a22fc73a3c960001b611208565b6103ff7fcb05f84539e755eb40cdcb8b7287437a589a29634a0d10d5c40a26553a4d658e60001b611208565b6000811115610498576104347f609606468c0e32533de48ea5fc4120006dccf26703002535e0a086b98dd028fd60001b611208565b6104607fa5c6ae911fc7f8d9feb927765fa52d5bffb37a187760641c828dbff7010b754460001b611208565b61048c7f3933014cdcecdd5d7a826b1c4485e6907613e0d15211826f4b7f51a455cfeca860001b611208565b806002819055506104c5565b6104c47f81f1552da6e7a5430dbc3096254569ccea729435c40aede2fe9a1c201bbb668160001b611208565b5b6104f17f9a020695f326d6cc3d22805d330f7dba185a830550d9497c27465b54cbe89b2260001b611208565b61051d7f04982fe0ce6991ffb3f219d313d9578cbbea49ef83eafd4178a2e22709cf394660001b611208565b426001819055506105507fdc20d17421ebc2dfbde798f73f827f3fe148a6952fe7bbdcc6f5427d5c080e8160001b611208565b61057c7f8ed149cf40cbf053397eca52a329030011cc1bfbf5000110cadf8b5602baea5760001b611208565b7f90c6eb475b1dc27758b0b1c75bd44d59a523bab636839816edfad763432d1e5a60405160405180910390a150565b60005481565b6105dd7ff1d24c5ad03ef7c464ad11013d30bc51915a8421adaf1856ce3e9f3a3463081e60001b611208565b6106097f91f1a4df97cd2c5efe6e8a336f9f11ee53627513887484982a225a78796536c160001b611208565b6106357f4bf9ad395b340b402604da50d245768add817df05f11488dc8577d7b4a1e1f0760001b611208565b620151806001546106469190611478565b42101580156106f75750662386f26fc10000600360009054906101000a900473ffffffffffffffffffffffffffffffffffffffff1673ffffffffffffffffffffffffffffffffffffffff166370a08231306040518263ffffffff1660e01b81526004016106b39190611312565b602060405180830381865afa1580156106d0573d6000803e3d6000fd5b505050506040513d601f19601f820116820180604052508101906106f491906114c1565b10155b151560001515036107605761072e7fd2659d458220af02af571a2ab06fe98366f60832b8d8bb829a089b38096264e860001b611208565b6040517ff33f738f00000000000000000000000000000000000000000000000000000000815260040160405180910390fd5b61078c7f071903363a8295777e93c3429aa9c9cb5c1ecf7a0faab8767a5d5b75adefcc8160001b611208565b6107b87f2be18cc020919bab3baf52fef1b44114b59871586d0633b598a79981eddf5d7160001b611208565b6107e47f2c890cd7adc6640c3d32208285da7b9c3f9562c6df6f1db9c873cd2354a35e1060001b611208565b6107ed816107f0565b50565b61081c7fe3a4d1b7ad6d05dd5d4e0d74781b4eaea1c571eab00d3d5f5524faf9afa4c01460001b611208565b6108487f9f15fb4026f8870c42a9b63750813ae356b336bf644ec4753a72743a9219bc3260001b611208565b6108747f542f100237b5830df6b580f2d95bc9505006ed3b156562e762c7767ec0b760af60001b611208565b61087d8161037b565b50565b60015481565b60006108b47f27a643f986c8bb07ec893db27d9e63be1725c7d69dba3b72be77c959b018852060001b611208565b6108e07fe27693131c3e634dabf306fd4dd9bf07e758fe759e92787992028ea8c558785560001b611208565b61090c7fd43a6bf1a048e6745d33d892f513cf021abda7acb020d6506326ade395c98f4660001b611208565b6304c60a8c905090565b7f000000000000000000000000000000000000000000000000000000000000000081565b60006109687fdf8e868d3b8356b83c5ab9aa59f199ab4bebbae8a2f9a3353e9a3501e7f12afc60001b611208565b6109947f79925218a820cf52a02c3e213a72558160d8c7841d96bcb03a3bd5fc1d22acfe60001b611208565b6109c07f390413093c308d359dde070c96833b3490c30f985d7cb182e099513282f9e26760001b611208565b6109c8610886565b6103e8670de0b6b3a76400006103eb6002546109e491906113d6565b6109ee91906114ee565b6109f89190611566565b610a029190611566565b905090565b610a337f4c68e691287f61f96f72a7b63debd4ca7a0a256451048ef46de8a93529d9119260001b611208565b610a5f7f248b5d19dc08efdda451c64e427404adc3b1fc0d14f984d2b83be3b53dc153e860001b611208565b610a8b7fb55c8078267e778a94a715e598ecb06150562196ed339c6c3369438a847ef64460001b611208565b7f000000000000000000000000000000000000000000000000000000000000000073ffffffffffffffffffffffffffffffffffffffff163373ffffffffffffffffffffffffffffffffffffffff1614610b3c57610b0a7f87fd12655cf28233d730667a26f59b69c2ecb7103441aafaabfe27688b7e40f960001b611208565b6040517f251c9d6300000000000000000000000000000000000000000000000000000000815260040160405180910390fd5b610b687fb515eb469dea8ae233e177ed64112203a2ec9f96496f03367118d4f931f0154b60001b611208565b610b947fbb80cb8338269584ab4724ddcfa3e66b4fbc83cf891d0f868be39c995cc4367b60001b611208565b610bc07f2223fa9fb084688aa835ae2694b9b19491d2935b77685f02a55915ba282f2f8560001b611208565b8060008190555050565b600360009054906101000a900473ffffffffffffffffffffffffffffffffffffffff1681565b60025481565b610c227f5497f6d89fea38ca7edf536f22ebf289e519cc068a02d6f41d4dbcc0e19878d560001b611208565b610c4e7f45b1c59b32b9fe10729a2e3620e986ae88f73472db87ac710d8daa30f67b84db60001b611208565b610c7a7f16aa08f437fb9422ff86d5f4afa1d7e89de420e5ac773f53fcdc60f63c522cda60001b611208565b6000805403610ce157610caf7f490c318e932fa25661fe04e08219ca628184a4b45f6f52212a7f0fd6c525289160001b611208565b6040517fee94d61d00000000000000000000000000000000000000000000000000000000815260040160405180910390fd5b610d0d7fc2e9bf1e8aabb4848a51702b926b10a189690494448c06d09be3ab4971f796a560001b611208565b610d397f7248b64f2b4283ecfb73dd155806ec499f0267c0295e93a34973a7f8fd32985b60001b611208565b610d657fa6746fb97802c36d716281a2167f0d7b8652c41bf097e80c8a5180771046ca3160001b611208565b6000610d6f6102cd565b03610dd257610da07f5a125e444bd476ef65e871731048af2d4b7028d7ee3a189eb414d141fba8415260001b611208565b6040517fd5da0f4300000000000000000000000000000000000000000000000000000000815260040160405180910390fd5b610dfe7fb50b199379265689ae60282eaed8519f777982723e92c772e86a06b292843c0460001b611208565b610e2a7f506db7d3e8224eaa5d20a78d15a58fbddf47764c7245462794c34986ba1dac6b60001b611208565b610e567f6167416346decb679c2a1ce1abfa8884a798d75af353037ba631d7180851ad1d60001b611208565b610e5e6102cd565b341015610ec357610e917f1873637dbf558a1aeb2d0eba3f947a9b084e2c70a73a866bc9d3e84575d0167860001b611208565b6040517f4837092100000000000000000000000000000000000000000000000000000000815260040160405180910390fd5b610eef7f8671782f60e7141a2a63292c019b171fcb53f749e29d5b0e1f6c9b32c22c326a60001b611208565b610f1b7f82904014f8406bbfc7a3a336ec731430a9f4167a46ee582ee0e07ff8b992d6f260001b611208565b610f477f82f446c7327a0092a90ecc1b09bc9772a1479daf68314c072b03cb5253c75a3560001b611208565b60008081905550610f7a7f7e4cf2ed0b241aff3db1010bc19503d5281d4d208d23f435075fcf9a54f37f9a60001b611208565b610fa67f0d3cf5ad30ac227510b95a19b0d6b3e908ea0974de4b2a522a822ef406b0099160001b611208565b610fae6102cd565b34111561109657610fe17f8fe582e400da7477964802a59ac3d87e5c860954c14a2b49262a6e9a6263ed3460001b611208565b61100c7eedd92cad22bc2006bcecc29f53349c33073134e5a0432c775bbc495ecc392a60001b611208565b6110387ff9d99beede762e81e3d3bc8c9876005a9b345145668443cf892fd014c0dc63bb60001b611208565b3373ffffffffffffffffffffffffffffffffffffffff166108fc61105a6102cd565b3461106591906115d0565b9081150290604051600060405180830381858888f19350505050158015611090573d6000803e3d6000fd5b506110c3565b6110c27f501d2d7be3acb004663b87b4386a17abc323a268f805260c7baadf2bd8b8d70760001b611208565b5b6110ef7f394c6cc9cd09b846d4942af4a5e623398342685cb0dae039c51aec8451c7358960001b611208565b61111b7f079e39dfd1866de8af774788c2216e8d32ac6e64dc7e88897fdc9ad4477b0ab560001b611208565b7f000000000000000000000000000000000000000000000000000000000000000073ffffffffffffffffffffffffffffffffffffffff166108fc479081150290604051600060405180830381858888f19350505050158015611181573d6000803e3d6000fd5b506111ae7f4f191b257ff2fcb7e2f2eaca5cd262fc6b5492dd97e76eb6b633bc732f20a61360001b611208565b6111da7f81b81c7e8e9be2d751bda35d64e2f931de06d0bffab2d799807c0339feb6f4ad60001b611208565b7f260abb0ce3f225ef1530c6f1a606b8331910fd3f66650c133f35b5817624ffe260405160405180910390a1565b50565b6000819050919050565b61121e8161120b565b82525050565b60006020820190506112396000830184611215565b92915050565b600080fd5b61124d8161120b565b811461125857600080fd5b50565b60008135905061126a81611244565b92915050565b6000602082840312156112865761128561123f565b5b60006112948482850161125b565b91505092915050565b6000819050919050565b6112b08161129d565b82525050565b60006020820190506112cb60008301846112a7565b92915050565b600073ffffffffffffffffffffffffffffffffffffffff82169050919050565b60006112fc826112d1565b9050919050565b61130c816112f1565b82525050565b60006020820190506113276000830184611303565b92915050565b6000819050919050565b600061135261134d611348846112d1565b61132d565b6112d1565b9050919050565b600061136482611337565b9050919050565b600061137682611359565b9050919050565b6113868161136b565b82525050565b60006020820190506113a1600083018461137d565b92915050565b7f4e487b7100000000000000000000000000000000000000000000000000000000600052601160045260246000fd5b60006113e18261120b565b91506113ec8361120b565b92508282026113fa8161120b565b91508282048414831517611411576114106113a7565b5b5092915050565b7f4e487b7100000000000000000000000000000000000000000000000000000000600052601260045260246000fd5b60006114528261120b565b915061145d8361120b565b92508261146d5761146c611418565b5b828204905092915050565b60006114838261120b565b915061148e8361120b565b92508282019050808211156114a6576114a56113a7565b5b92915050565b6000815190506114bb81611244565b92915050565b6000602082840312156114d7576114d661123f565b5b60006114e5848285016114ac565b91505092915050565b60006114f98261129d565b91506115048361129d565b92508282026115128161129d565b91507f8000000000000000000000000000000000000000000000000000000000000000841460008412161561154a576115496113a7565b5b828205841483151761155f5761155e6113a7565b5b5092915050565b60006115718261129d565b915061157c8361129d565b92508261158c5761158b611418565b5b600160000383147f8000000000000000000000000000000000000000000000000000000000000000831416156115c5576115c46113a7565b5b828205905092915050565b60006115db8261120b565b91506115e68361120b565b92508282039050818111156115fe576115fd6113a7565b5b9291505056fea2646970667358221220a7013f22f7b907100aa887d48b56d90b251152d21a765a28b1d771bdaa1f5dd064736f6c63430008110033",
  "linkReferences": {},
  "deployedLinkReferences": {}
}