{
  "_format": "hh-sol-artifact-1",
  "contractName": "mockGweiPump",
  "sourceName": "contracts/mockGweiPump.sol",
  "abi": [
    {
      "inputs": [
        {
          "internalType": "address",
          "name": "mockLinkAddress",
          "type": "address"
        }
      ],
      "stateMutability": "nonpayable",
      "type": "constructor"
    },
    {
      "inputs": [],
      "name": "msgValueTooSmall",
      "type": "error"
    },
    {
      "inputs": [],
      "name": "notOwner",
      "type": "error"
    },
    {
      "inputs": [],
      "name": "oraclePriceFeedZero",
      "type": "error"
    },
    {
      "inputs": [],
      "name": "pumpNotFilled",
      "type": "error"
    },
    {
      "inputs": [],
      "name": "upKeepNotNeeded",
      "type": "error"
    },
    {
      "anonymous": false,
      "inputs": [],
      "name": "oilBought",
      "type": "event"
    },
    {
      "anonymous": false,
      "inputs": [],
      "name": "updateWti",
      "type": "event"
    },
    {
      "inputs": [],
      "name": "Owner",
      "outputs": [
        {
          "internalType": "address",
          "name": "",
          "type": "address"
        }
      ],
      "stateMutability": "view",
      "type": "function"
    },
    {
      "inputs": [],
      "name": "WtiPriceOracle",
      "outputs": [
        {
          "internalType": "uint256",
          "name": "",
          "type": "uint256"
        }
      ],
      "stateMutability": "view",
      "type": "function"
    },
    {
      "inputs": [],
      "name": "buyOil40Milliliters",
      "outputs": [],
      "stateMutability": "payable",
      "type": "function"
    },
    {
      "inputs": [],
      "name": "erc20LINK",
      "outputs": [
        {
          "internalType": "contract ERC20TokenContract",
          "name": "",
          "type": "address"
        }
      ],
      "stateMutability": "view",
      "type": "function"
    },
    {
      "inputs": [],
      "name": "feeThreeThousandthPercent",
      "outputs": [
        {
          "internalType": "int256",
          "name": "",
          "type": "int256"
        }
      ],
      "stateMutability": "view",
      "type": "function"
    },
    {
      "inputs": [],
      "name": "isPumpFilled",
      "outputs": [
        {
          "internalType": "uint256",
          "name": "",
          "type": "uint256"
        }
      ],
      "stateMutability": "view",
      "type": "function"
    },
    {
      "inputs": [],
      "name": "lastWtiPriceCheckUnixTime",
      "outputs": [
        {
          "internalType": "uint256",
          "name": "",
          "type": "uint256"
        }
      ],
      "stateMutability": "view",
      "type": "function"
    },
    {
      "inputs": [
        {
          "internalType": "uint256",
          "name": "mockOracleValue",
          "type": "uint256"
        }
      ],
      "name": "manualUpKeep",
      "outputs": [],
      "stateMutability": "nonpayable",
      "type": "function"
    },
    {
      "inputs": [
        {
          "internalType": "uint256",
          "name": "mockOracleValue",
          "type": "uint256"
        }
      ],
      "name": "mockChainlinkNodeRequestWtiPrice",
      "outputs": [],
      "stateMutability": "nonpayable",
      "type": "function"
    },
    {
      "inputs": [],
      "name": "mockGetLatestMaticUsd",
      "outputs": [
        {
          "internalType": "int256",
          "name": "",
          "type": "int256"
        }
      ],
      "stateMutability": "view",
      "type": "function"
    },
    {
      "inputs": [],
      "name": "mockGetLatestWtiMatic",
      "outputs": [
        {
          "internalType": "uint256",
          "name": "",
          "type": "uint256"
        }
      ],
      "stateMutability": "view",
      "type": "function"
    },
    {
      "inputs": [],
      "name": "mockWti40Milliliters",
      "outputs": [
        {
          "internalType": "uint256",
          "name": "",
          "type": "uint256"
        }
      ],
      "stateMutability": "view",
      "type": "function"
    },
    {
      "inputs": [
        {
          "internalType": "uint256",
          "name": "memoryWtiPriceOracle",
          "type": "uint256"
        }
      ],
      "name": "mockfulfill",
      "outputs": [],
      "stateMutability": "nonpayable",
      "type": "function"
    },
    {
      "inputs": [
        {
          "internalType": "uint256",
          "name": "status",
          "type": "uint256"
        }
      ],
      "name": "ownerPumpFilledStatus",
      "outputs": [],
      "stateMutability": "nonpayable",
      "type": "function"
    }
  ],
  "bytecode": "0x60c06040526001600055600360a0908152503480156200001e57600080fd5b50604051620019b1380380620019b1833981810160405281019062000044919062000231565b620000787f99a08f8b56b0af1fffceb96db7928130e2fcd3a7f4d7bef27e10f5d68d8f835c60001b620001c460201b60201c565b620000ac7f513cff4aff6d7164b63883d38625ebd4348289eeacd93c018085fcf9b12ee8ec60001b620001c460201b60201c565b620000e07f16a08a5b9f59b44043ff12ffe02f662ce23810cedbb85d10738c8768a68d9f6660001b620001c460201b60201c565b3373ffffffffffffffffffffffffffffffffffffffff1660808173ffffffffffffffffffffffffffffffffffffffff1681525050620001487fdf4dbeab38b1669f6a88dee0f8a7d4a5a693e763758e3e107de8bb61403fa96760001b620001c460201b60201c565b6200017c7fd9e12e78673f064754e74295f441d3f738fdf532fb94344969d10ac20e86ffc760001b620001c460201b60201c565b80600360006101000a81548173ffffffffffffffffffffffffffffffffffffffff021916908373ffffffffffffffffffffffffffffffffffffffff1602179055505062000263565b50565b600080fd5b600073ffffffffffffffffffffffffffffffffffffffff82169050919050565b6000620001f982620001cc565b9050919050565b6200020b81620001ec565b81146200021757600080fd5b50565b6000815190506200022b8162000200565b92915050565b6000602082840312156200024a5762000249620001c7565b5b60006200025a848285016200021a565b91505092915050565b60805160a0516117136200029e600039600081816105f30152610a3701526000818161098201528181610b2201526111b201526117136000f3fe6080604052600436106100dd5760003560e01c806398e071ee1161007f578063d42506b811610059578063d42506b81461028a578063d6666612146102b3578063d698a37e146102de578063f5da229e14610309576100dd565b806398e071ee14610209578063b4a99a4e14610234578063b69781811461025f576100dd565b80635fce9d34116100bb5780635fce9d341461016157806377b2d82a1461018c5780637de03ddf146101b5578063861b31ce146101de576100dd565b8063162ecb8d146100e25780633fa079ce1461010d578063417ef9de14610136575b600080fd5b3480156100ee57600080fd5b506100f7610313565b60405161010491906112b9565b60405180910390f35b34801561011957600080fd5b50610134600480360381019061012f9190611305565b6103c1565b005b34801561014257600080fd5b5061014b6105f1565b604051610158919061134b565b60405180910390f35b34801561016d57600080fd5b50610176610615565b60405161018391906112b9565b60405180910390f35b34801561019857600080fd5b506101b360048036038101906101ae9190611305565b61061b565b005b3480156101c157600080fd5b506101dc60048036038101906101d79190611305565b61085a565b005b3480156101ea57600080fd5b506101f36108ea565b60405161020091906112b9565b60405180910390f35b34801561021557600080fd5b5061021e6108f0565b60405161022b919061134b565b60405180910390f35b34801561024057600080fd5b50610249610980565b60405161025691906113a7565b60405180910390f35b34801561026b57600080fd5b506102746109a4565b60405161028191906112b9565b60405180910390f35b34801561029657600080fd5b506102b160048036038101906102ac9190611305565b610a9c565b005b3480156102bf57600080fd5b506102c8610c5f565b6040516102d59190611421565b60405180910390f35b3480156102ea57600080fd5b506102f3610c85565b60405161030091906112b9565b60405180910390f35b610311610c8b565b005b60006103417fc527462d69ea6bbbbb8e17fae067f9094f6473898e5df103d27eb40826d80ab560001b61129d565b61036d7f032208bbb4c443c20e832084b191665ca02cb915824ffea38eed40461dc40bb460001b61129d565b6103997ff6c4cab5d3765a2402491470c8d0c19662ec50ac69973e23571dbab31e2617c160001b61129d565b62f298696103a56109a4565b610fa06103b2919061146b565b6103bc91906114dc565b905090565b6103ed7f31ed8f6c70a96ac2a9b52d5a8d28f39f6ea92cb35b41ac2e7d0cdbf32e5e84c760001b61129d565b6104197f2da0cc678526a9319c4707f4c96bc1135c19a46cb17fd094d8df9a22fc73a3c960001b61129d565b6104457fcb05f84539e755eb40cdcb8b7287437a589a29634a0d10d5c40a26553a4d658e60001b61129d565b60008111156104de5761047a7f609606468c0e32533de48ea5fc4120006dccf26703002535e0a086b98dd028fd60001b61129d565b6104a67fa5c6ae911fc7f8d9feb927765fa52d5bffb37a187760641c828dbff7010b754460001b61129d565b6104d27f3933014cdcecdd5d7a826b1c4485e6907613e0d15211826f4b7f51a455cfeca860001b61129d565b8060028190555061050b565b61050a7f81f1552da6e7a5430dbc3096254569ccea729435c40aede2fe9a1c201bbb668160001b61129d565b5b6105377f9a020695f326d6cc3d22805d330f7dba185a830550d9497c27465b54cbe89b2260001b61129d565b6105637f04982fe0ce6991ffb3f219d313d9578cbbea49ef83eafd4178a2e22709cf394660001b61129d565b426001819055506105967fdc20d17421ebc2dfbde798f73f827f3fe148a6952fe7bbdcc6f5427d5c080e8160001b61129d565b6105c27f8ed149cf40cbf053397eca52a329030011cc1bfbf5000110cadf8b5602baea5760001b61129d565b7f90c6eb475b1dc27758b0b1c75bd44d59a523bab636839816edfad763432d1e5a60405160405180910390a150565b7f000000000000000000000000000000000000000000000000000000000000000081565b60005481565b6106477ff1d24c5ad03ef7c464ad11013d30bc51915a8421adaf1856ce3e9f3a3463081e60001b61129d565b6106737f91f1a4df97cd2c5efe6e8a336f9f11ee53627513887484982a225a78796536c160001b61129d565b61069f7f4bf9ad395b340b402604da50d245768add817df05f11488dc8577d7b4a1e1f0760001b61129d565b620151806001546106b0919061150d565b42101580156107615750662386f26fc10000600360009054906101000a900473ffffffffffffffffffffffffffffffffffffffff1673ffffffffffffffffffffffffffffffffffffffff166370a08231306040518263ffffffff1660e01b815260040161071d91906113a7565b602060405180830381865afa15801561073a573d6000803e3d6000fd5b505050506040513d601f19601f8201168201806040525081019061075e9190611556565b10155b151560001515036107ca576107987fd2659d458220af02af571a2ab06fe98366f60832b8d8bb829a089b38096264e860001b61129d565b6040517ff33f738f00000000000000000000000000000000000000000000000000000000815260040160405180910390fd5b6107f67f071903363a8295777e93c3429aa9c9cb5c1ecf7a0faab8767a5d5b75adefcc8160001b61129d565b6108227f2be18cc020919bab3baf52fef1b44114b59871586d0633b598a79981eddf5d7160001b61129d565b61084e7f2c890cd7adc6640c3d32208285da7b9c3f9562c6df6f1db9c873cd2354a35e1060001b61129d565b6108578161085a565b50565b6108867fe3a4d1b7ad6d05dd5d4e0d74781b4eaea1c571eab00d3d5f5524faf9afa4c01460001b61129d565b6108b27f9f15fb4026f8870c42a9b63750813ae356b336bf644ec4753a72743a9219bc3260001b61129d565b6108de7f542f100237b5830df6b580f2d95bc9505006ed3b156562e762c7767ec0b760af60001b61129d565b6108e7816103c1565b50565b60015481565b600061091e7f27a643f986c8bb07ec893db27d9e63be1725c7d69dba3b72be77c959b018852060001b61129d565b61094a7fe27693131c3e634dabf306fd4dd9bf07e758fe759e92787992028ea8c558785560001b61129d565b6109767fd43a6bf1a048e6745d33d892f513cf021abda7acb020d6506326ade395c98f4660001b61129d565b6304c60a8c905090565b7f000000000000000000000000000000000000000000000000000000000000000081565b60006109d27fdf8e868d3b8356b83c5ab9aa59f199ab4bebbae8a2f9a3353e9a3501e7f12afc60001b61129d565b6109fe7f79925218a820cf52a02c3e213a72558160d8c7841d96bcb03a3bd5fc1d22acfe60001b61129d565b610a2a7f390413093c308d359dde070c96833b3490c30f985d7cb182e099513282f9e26760001b61129d565b610a326108f0565b6103e87f00000000000000000000000000000000000000000000000000000000000000006103e8610a639190611583565b610a6d91906115c7565b670de0b6b3a7640000600254610a839190611631565b610a8d9190611631565b610a9791906115c7565b905090565b610ac87f4c68e691287f61f96f72a7b63debd4ca7a0a256451048ef46de8a93529d9119260001b61129d565b610af47f248b5d19dc08efdda451c64e427404adc3b1fc0d14f984d2b83be3b53dc153e860001b61129d565b610b207fb55c8078267e778a94a715e598ecb06150562196ed339c6c3369438a847ef64460001b61129d565b7f000000000000000000000000000000000000000000000000000000000000000073ffffffffffffffffffffffffffffffffffffffff163373ffffffffffffffffffffffffffffffffffffffff1614610bd157610b9f7f87fd12655cf28233d730667a26f59b69c2ecb7103441aafaabfe27688b7e40f960001b61129d565b6040517f251c9d6300000000000000000000000000000000000000000000000000000000815260040160405180910390fd5b610bfd7fb515eb469dea8ae233e177ed64112203a2ec9f96496f03367118d4f931f0154b60001b61129d565b610c297fbb80cb8338269584ab4724ddcfa3e66b4fbc83cf891d0f868be39c995cc4367b60001b61129d565b610c557f2223fa9fb084688aa835ae2694b9b19491d2935b77685f02a55915ba282f2f8560001b61129d565b8060008190555050565b600360009054906101000a900473ffffffffffffffffffffffffffffffffffffffff1681565b60025481565b610cb77f5497f6d89fea38ca7edf536f22ebf289e519cc068a02d6f41d4dbcc0e19878d560001b61129d565b610ce37f45b1c59b32b9fe10729a2e3620e986ae88f73472db87ac710d8daa30f67b84db60001b61129d565b610d0f7f16aa08f437fb9422ff86d5f4afa1d7e89de420e5ac773f53fcdc60f63c522cda60001b61129d565b6000805403610d7657610d447f490c318e932fa25661fe04e08219ca628184a4b45f6f52212a7f0fd6c525289160001b61129d565b6040517fee94d61d00000000000000000000000000000000000000000000000000000000815260040160405180910390fd5b610da27fc2e9bf1e8aabb4848a51702b926b10a189690494448c06d09be3ab4971f796a560001b61129d565b610dce7f7248b64f2b4283ecfb73dd155806ec499f0267c0295e93a34973a7f8fd32985b60001b61129d565b610dfa7fa6746fb97802c36d716281a2167f0d7b8652c41bf097e80c8a5180771046ca3160001b61129d565b6000610e04610313565b03610e6757610e357f5a125e444bd476ef65e871731048af2d4b7028d7ee3a189eb414d141fba8415260001b61129d565b6040517fd5da0f4300000000000000000000000000000000000000000000000000000000815260040160405180910390fd5b610e937fb50b199379265689ae60282eaed8519f777982723e92c772e86a06b292843c0460001b61129d565b610ebf7f506db7d3e8224eaa5d20a78d15a58fbddf47764c7245462794c34986ba1dac6b60001b61129d565b610eeb7f6167416346decb679c2a1ce1abfa8884a798d75af353037ba631d7180851ad1d60001b61129d565b610ef3610313565b341015610f5857610f267f1873637dbf558a1aeb2d0eba3f947a9b084e2c70a73a866bc9d3e84575d0167860001b61129d565b6040517f4837092100000000000000000000000000000000000000000000000000000000815260040160405180910390fd5b610f847f8671782f60e7141a2a63292c019b171fcb53f749e29d5b0e1f6c9b32c22c326a60001b61129d565b610fb07f82904014f8406bbfc7a3a336ec731430a9f4167a46ee582ee0e07ff8b992d6f260001b61129d565b610fdc7f82f446c7327a0092a90ecc1b09bc9772a1479daf68314c072b03cb5253c75a3560001b61129d565b6000808190555061100f7f7e4cf2ed0b241aff3db1010bc19503d5281d4d208d23f435075fcf9a54f37f9a60001b61129d565b61103b7f0d3cf5ad30ac227510b95a19b0d6b3e908ea0974de4b2a522a822ef406b0099160001b61129d565b611043610313565b34111561112b576110767f8fe582e400da7477964802a59ac3d87e5c860954c14a2b49262a6e9a6263ed3460001b61129d565b6110a17eedd92cad22bc2006bcecc29f53349c33073134e5a0432c775bbc495ecc392a60001b61129d565b6110cd7ff9d99beede762e81e3d3bc8c9876005a9b345145668443cf892fd014c0dc63bb60001b61129d565b3373ffffffffffffffffffffffffffffffffffffffff166108fc6110ef610313565b346110fa91906116a9565b9081150290604051600060405180830381858888f19350505050158015611125573d6000803e3d6000fd5b50611158565b6111577f501d2d7be3acb004663b87b4386a17abc323a268f805260c7baadf2bd8b8d70760001b61129d565b5b6111847f394c6cc9cd09b846d4942af4a5e623398342685cb0dae039c51aec8451c7358960001b61129d565b6111b07f079e39dfd1866de8af774788c2216e8d32ac6e64dc7e88897fdc9ad4477b0ab560001b61129d565b7f000000000000000000000000000000000000000000000000000000000000000073ffffffffffffffffffffffffffffffffffffffff166108fc479081150290604051600060405180830381858888f19350505050158015611216573d6000803e3d6000fd5b506112437f4f191b257ff2fcb7e2f2eaca5cd262fc6b5492dd97e76eb6b633bc732f20a61360001b61129d565b61126f7f81b81c7e8e9be2d751bda35d64e2f931de06d0bffab2d799807c0339feb6f4ad60001b61129d565b7f260abb0ce3f225ef1530c6f1a606b8331910fd3f66650c133f35b5817624ffe260405160405180910390a1565b50565b6000819050919050565b6112b3816112a0565b82525050565b60006020820190506112ce60008301846112aa565b92915050565b600080fd5b6112e2816112a0565b81146112ed57600080fd5b50565b6000813590506112ff816112d9565b92915050565b60006020828403121561131b5761131a6112d4565b5b6000611329848285016112f0565b91505092915050565b6000819050919050565b61134581611332565b82525050565b6000602082019050611360600083018461133c565b92915050565b600073ffffffffffffffffffffffffffffffffffffffff82169050919050565b600061139182611366565b9050919050565b6113a181611386565b82525050565b60006020820190506113bc6000830184611398565b92915050565b6000819050919050565b60006113e76113e26113dd84611366565b6113c2565b611366565b9050919050565b60006113f9826113cc565b9050919050565b600061140b826113ee565b9050919050565b61141b81611400565b82525050565b60006020820190506114366000830184611412565b92915050565b7f4e487b7100000000000000000000000000000000000000000000000000000000600052601160045260246000fd5b6000611476826112a0565b9150611481836112a0565b925082820261148f816112a0565b915082820484148315176114a6576114a561143c565b5b5092915050565b7f4e487b7100000000000000000000000000000000000000000000000000000000600052601260045260246000fd5b60006114e7826112a0565b91506114f2836112a0565b925082611502576115016114ad565b5b828204905092915050565b6000611518826112a0565b9150611523836112a0565b925082820190508082111561153b5761153a61143c565b5b92915050565b600081519050611550816112d9565b92915050565b60006020828403121561156c5761156b6112d4565b5b600061157a84828501611541565b91505092915050565b600061158e82611332565b915061159983611332565b9250828201905082811215600083121683821260008412151617156115c1576115c061143c565b5b92915050565b60006115d282611332565b91506115dd83611332565b9250826115ed576115ec6114ad565b5b600160000383147f8000000000000000000000000000000000000000000000000000000000000000831416156116265761162561143c565b5b828205905092915050565b600061163c82611332565b915061164783611332565b925082820261165581611332565b91507f8000000000000000000000000000000000000000000000000000000000000000841460008412161561168d5761168c61143c565b5b82820584148315176116a2576116a161143c565b5b5092915050565b60006116b4826112a0565b91506116bf836112a0565b92508282039050818111156116d7576116d661143c565b5b9291505056fea2646970667358221220ab3edec6e7856abac7bb36135ee50586769267b57fcd789a045bafe361dc6b6164736f6c63430008110033",
  "linkReferences": {},
  "deployedLinkReferences": {}
}